S00E000053595354454D2E7372656331
S113000046C2000065C2000063C2000061C2000075
S11300105FC200005DC200005BC2000059C2000064
S113002057C2000055C2000053C2000051C2000074
S11300304FC200004DC200004BC2000049C2000084
S113004047C2000045C2000043C2000041C2000094
S11300503FC200003DC200003BC2000039C20000A4
S113006037C2000035C2000033C2000031C20000B4
S11300702FC200002DC200002BC2000029C20000C4
S113008027C2000025C2000023C2000021C20000D4
S11300901FC200001DC200001BC2000019C20000E4
S11300A017C2000015C2000013C2000011C20000F4
S11300B00FC200000DC200000BC2000009C2000004
S11300C007C2000005C2000003C2000001C2000014
S11300D0FFC10000FDC10000FBC10000F9C1000028
S11300E0F7C10000F5C10000F3C10000F1C1000038
S11300F0EFC10000EDC10000EBC10000E9C1000048
S1130100E7C10000E5C10000E3C10000E1C1000057
S1130110DFC10000DDC10000DBC10000D9C1000067
S1130120D7C10000D5C10000D3C10000D1C1000077
S1130130CFC10000CDC10000CBC10000C9C1000087
S1130140C7C10000C5C10000C3C10000C1C1000097
S1130150BFC10000BDC10000BBC10000B9C10000A7
S1130160B7C10000B5C10000B3C10000B1C10000B7
S1130170AFC10000ADC10000ABC10000A9C10000C7
S1130180A7C10000A5C10000A3C10000A1C10000D7
S11301909FC100009DC100009BC1000099C10000E7
S11301A097C1000095C1000093C1000091C10000F7
S11301B08FC100008DC100008BC1000089C1000007
S11301C087C1000085C1000083C1000081C1000017
S11301D07FC100007DC100007BC1000079C1000027
S11301E077C1000075C1000073C1000071C1000037
S11301F06FC100006DC100006BC100000000000071
S1130200000000202020202000205050500000003A
S1130210005050F850F850502078A07028F020C0BA
S1130220C810204098186090A040A89068602040B2
S1130230000000001020404040201040201010100A
S11302402040005020F8205000002020F8202000FA
S113025000000000602040000000F80000000000E2
S1130260000000606000081020408000708898A89A
S1130270C8887020602020202070708808102040DA
S1130280F8F810201008887010305090F81010F80A
S113029080F008088870304080F0888870F8081072
S11302A020404040708888708888707088887808FA
S11302B010600060600060600000606000602040CA
S11302C0081020402010080000F800F800008040CA
S11302D02010204080708808102000207088086852
S11302E0A8A87070888888F88888F08888F088883A
S11302F0F070888080808870E09088888890E0F82A
S11303008080F08080F8F88080E080808070888031
S113031080988870888888F88888887020202020B1
S11303202070381010101090608890A0C0A09088A1
S1130330808080808080F888D8A888888888888889
S1130340C8A898888870888888888870F08888F019
S113035080808070888888A89068F08888F0A09051
S113036088788080700808F0F820202020202088D9
S113037088888888887088888888885020888888B1
S1130380A8A8D88888885020508888888850202039
S11303902020F80810204080F83820202020203821
S11303A000804020100800E02020202020E0205081
S11303B08800000000000000000000F84020100049
S11303C0000000000070087888788080B0C88888B1
S11303D0F000007080808870080868988888780029
S11303E0007088F88070304840E040404000007859
S11303F0887808308080B0C88888882000602020F1
S113040020701000301010906040404850605048F8
S1130410602020202020700000D0A8A88888000038
S1130420B0C8888888000070888888700000F088C8
S1130430F08080000068987808080000B0C88080C8
S113044080000070807008F04040E0404048300078
S11304500088888898680000888888502000008870
S113046088A8A85000008850205088000088887808
S113047008700000F8102040F810202040202010C0
S11304802020202020202040202010202040112443
S11304901FBECFEFCDBFDFE5DEBF00E00CBF10E233
S11304A0A0E0B0E2E0ECF8E100E00BBF02C007908E
S11304B00D92AE30B107D9F722E2AEE0B0E201C04E
S11304C01D92A031B207E1F70E94FE0B0C945E0C62
S11304D097CDBF92CF92DF92EF92FF920F931F932B
S11304E0CF93DF931F92CDB7DEB788E0E0E0F6E06C
S11304F0868385830F2EFBE2BF2EF02DB98280EA1E
S113050099E00E94A80AC12CD12C760100E412E4DF
S11305102FE030E043E0BE016F5F7F4F80EA99E057
S11305200E94D70A00E616E0FF24F394F801F6824D
S1130530B982BE016F5F7F4F80EA99E00E94F10AA1
S1130540F801F682E0EAF9E0818185FFFDCF80EAD7
S11305508093A009E0EAF9E0818186FFFDCFE0EA1B
S1130560F9E080E481838081BE016F5F7F4F80EA80
S113057099E00E94070B8BE28983BE016F5F7F4F76
S113058080EA99E00E94F10A81E0E0E6F6E08683E1
S1130590E0EAF9E0818185FFFDCF86EA8093A00936
S11305A0E0EAF9E0818186FFFDCFE0EAF9E080E44A
S11305B081838081BE016F5F7F4F80EA99E00E9452
S11305C0070B8BE28983BE016F5F7F4F80EA99E05E
S11305D00E94F10A81E0E0E6F6E08683E0EAF9E0D1
S11305E0818185FFFDCF88EC8093A009E0EAF9E0E2
S11305F0818186FFFDCFE0EAF9E080E48183808198
S1130600BE016F5F7F4F80EA99E00E94070B8BE287
S11306108983BE016F5F7F4F80EA99E0E2D781E072
S1130620E0E6F6E08683E0EAF9E0818185FFFDCF2C
S113063082EA8093A009E0EAF9E0818186FFFDCF98
S1130640E0EAF9E080E481838081BE016F5F7F4F3F
S113065080EA99E0DCD78BE28983BE016F5F7F4F2C
S113066080EA99E0BED781E0E0E6F6E08683E0EA3E
S1130670F9E0818185FFFDCF8FE28093A009E0EA54
S1130680F9E0818186FFFDCFE0EAF9E080E481832F
S11306908081BE016F5F7F4F80EA99E0B8D78BE21B
S11306A08983BE016F5F7F4F80EA99E09AD781E02A
S11306B0E0E6F6E08683E0EAF9E0818185FFFDCF9C
S11306C088EF8093A009E0EAF9E0818186FFFDCFFD
S11306D0E0EAF9E080E481838081BE016F5F7F4FAF
S11306E080EA99E094D78BE28983BE016F5F7F4FE4
S11306F080EA99E076D781E0E0E6F6E08683E0EAF6
S1130700F9E0818185FFFDCF1092A009E0EAF9E0CC
S1130710818186FFFDCFE0EAF9E080E48183808176
S1130720BE016F5F7F4F80EA99E071D78BE28983C6
S1130730BE016F5F7F4F80EA99E053D781E0E0E626
S1130740F6E08683E0EAF9E0818185FFFDCF81E26E
S11307508093A009E0EAF9E0818186FFFDCFE0EA19
S1130760F9E080E481838081BE016F5F7F4F80EA7E
S113077099E04DD78BE28983BE016F5F7F4F80EA9A
S113078099E02FD781E0E0E6F6E08683E0EAF9E03D
S1130790818185FFFDCF81E88093A009E0EAF9E03B
S11307A0818186FFFDCFE0EAF9E080E481838081E6
S11307B0BE016F5F7F4F80EA99E029D78BE289837E
S11307C0BE016F5F7F4F80EA99E00BD781E0E0E6DE
S11307D0F6E08683E0EAF9E0818185FFFDCF81E2DE
S11307E08093A009E0EAF9E0818186FFFDCFE0EA89
S11307F0F9E080E481838081BE016F5F7F4F80EAEE
S113080099E005D78BE28983BE016F5F7F4F80EA51
S113081099E0E7D681E0E0E6F6E08683E0EAF9E0F5
S1130820818185FFFDCF8FEA8093A009E0EAF9E09A
S1130830818186FFFDCFE0EAF9E080E48183808155
S1130840BE016F5F7F4F80EA99E0E1D60F90DF91A0
S1130850CF911F910F91FF90EF90DF90CF90BF90B9
S11308600895FF920F931F93CF93DF931F92CDB7F9
S1130870DEB7F82E062F142F29D18F2D8F70806BA1
S1130880F82E8BE28983BE016F5F7F4F80EA99E087
S1130890A8D681E0E0E6F6E08683E0EAF9E091811B
S11308A095FFFDCFF092A009E0EAF9E0818186FF8F
S11308B0FDCFE0EAF9E080E481838081BE016F5FCF
S11308C07F4F80EA99E0A3D6802F8F7782958F702F
S11308D08061F82E8BE28983BE016F5F7F4F80EACF
S11308E099E07FD681E0E0E6F6E08683E0EAF9E08D
S11308F0818185FFFDCFF092A009E0EAF9E08181D2
S113090086FFFDCFE0EAF9E080E481838081BE01C7
S11309106F5F7F4F80EA99E07AD60F708BE289830C
S1130920BE016F5F7F4F80EA99E05BD681E0E0E62D
S1130930F6E08683E0EAF9E0818185FFFDCF00934C
S1130940A009E0EAF9E0818186FFFDCFE0EAF9E061
S113095080E481838081BE016F5F7F4F80EA99E0EC
S113096056D68BE28983BE016F5F7F4F80EA99E0A0
S113097038D681E0E0E6F6E08583E0EAF9E08181BB
S113098085FFFDCF1093A009E0EAF9E0818186FF9D
S1130990FDCFE0EAF9E080E48183808181E0E0E654
S11309A0F6E08683BE016F5F7F4F80EA99E02FD621
S11309B00F90DF91CF911F910F91FF9008950F93A6
S11309C01F93CF93DF931F92CDB7DEB78EE090E2F3
S11309D078D07FDD8BE28983BE016F5F7F4F80EA31
S11309E099E0FFD581E0E0E6F6E08683E0EAF9E00D
S11309F0818185FFFDCF80E48093A009E0EAF9E0DE
S1130A00818186FFFDCFE0EAF9E080E48183808183
S1130A10BE016F5F7F4F80EA99E0F9D500E00AC01C
S1130A2040E0612F802F1DDF1F5F1038C9F70F5F73
S1130A30043011F010E0F4CF0F90DF91CF911F91AB
S1130A400F910895FF920F931F93CF93DF93182F65
S1130A50042F882374F1603260F5F62EF694F69430
S1130A60F6942F2D30E0319521953109220F331F53
S1130A70220F331F220F331F260F311DE1E0F0E058
S1130A80EF0102C0CC0FDD1F2A95E2F7682F8F2DEE
S1130A902CD0013021F028F0023031F006C08C2B2C
S1130AA004C0C0958C2301C08C27482F612F8F2D43
S1130AB0D8DEDF91CF911F910F91FF90089515C05B
S1130AC0089580930E2290930F22089520E8829F28
S1130AD0C0011124FC01E60FF11D80910E229091BA
S1130AE00F22E80FF91F4083089520E8829FC00178
S1130AF01124FC01E60FF11D80910E2290910F222A
S1130B00E80FF91F80810895FF920F931F93CF93ED
S1130B10DF93E42FF0E0E80FF11DE138F10514F064
S1130B2040E8481B442309F459C0C62FC695C6950E
S1130B30C695EC2FF0E0F195E195F109EE0FFF1F5A
S1130B40EE0FFF1FEE0FFF1FDF01A60FB11DBD014A
S1130B50E1E0F0E0DF0102C0AA0FBB1F6A95E2F7F3
S1130B600A2F213049F068F0223009F037C0D42F21
S1130B70FF24FA94F80E26C0D42FFF24FA94F80E1A
S1130B8007C0D42FFF24FA94F80E0A2F00950DC045
S1130B901F2D1D0F612F8C2F92DF482F402B612FAB
S1130BA08C2F5FDED150A1F719C01F2D1D0F612FAF
S1130BB08C2F85DF482F4023612F8C2F52DED1509C
S1130BC0A1F70CC01F2D1D0F612F8C2F78DF482F2C
S1130BD04027612F8C2F45DED150A1F7DF91CF91B3
S1130BE01F910F91FF900895FF920F931F93CF933E
S1130BF0DF93D82F142F222361F0C22FFF24FA94FD
S1130C00F60E6F2D6C0F202F412F8D2F7DDFC150DD
S1130C10C1F7DF91CF911F910F91FF900895AF928B
S1130C20BF92CF92DF92EF92FF920F931F93CF93D5
S1130C30DF93C82FD62EA42E790100E0F901248178
S1130C4043816A2D8D2DD0DFF7019081911139C038
S1130C508381A82FA695A695A695877009F0AF5F06
S1130C60F701C480AC9DD0011124EC2FF0E0E70122
S1130C708D81E81BF109AE9F9001AF9F300DBE9F9F
S1130C80300D11240980DA81C02DC20FD31FF70162
S1130C90B380BB2099F000E010E0812F8D0D912FDF
S1130CA0977019F4FE010491219600231CF441E08D
S1130CB06A2DC8DE000F1F5F1B11EFCFA394CA94E7
S1130CC031F7DF91CF911F910F91FF90EF90DF905B
S1130CD0CF90BF90AF900895DF92EF92FF920F9361
S1130CE01F93CF93DF93E42E8901EC01F62ED62EC9
S1130CF089918A3031F4F80184818F5FE80EFD2CEC
S1130D0009C08D3039F098014E2D6F2D88DFF80120
S1130D108381F80E88818111EBCFDF91CF911F91F0
S1130D200F91FF90EF90DF900895FC01818188235B
S1130D30ECF7808108954F925F926F927F928F9229
S1130D409F92AF92BF92CF92DF92EF92FF920F9356
S1130D501F93CF93DF93EC014A015B012801390112
S1130D60D901C801689412F8B695A7959795879507
S1130D701694D1F7B901A801032E36E1769567954B
S1130D80579547953A95D1F7302D2C8122FD08C00F
S1130D90B695A795979587957695679557954795B1
S1130DA088159905AA05BB0508F4A2C08416950602
S1130DB0A606B70608F49EC08C8182FD04C0880C88
S1130DC0991CAA1CBB1CC301B201A501940154D5F2
S1130DD02F3F31054105510508F48EC0C12CD12C9B
S1130DE07601CA9419EF05C02C153D054E055F0523
S1130DF068F0CC0CDD1CEE1CFF1C1D3F14F4689441
S1130E00C0F81F5F173081F7212F4EC0212F112307
S1130E100CF04AC0D501C401880F991FAA1FBB1F3B
S1130E20880F991FAA1FBB1F880F991FAA1FBB1FDA
S1130E30481A590A6A0A7B0A1E3FECF46DEF7FEFE9
S1130E40611B710917FD739504C0440C551C661C85
S1130E50771C6A95D2F7D501C401B695A7959795E5
S1130E608795BC01CD01640D751D861D971DA501D7
S1130E70940102D534C023E0210FD501C40104C07C
S1130E80880F991FAA1FBB1F2A95D2F79C01AD0199
S1130E90B695A79597958795BC01CD01640D751DF1
S1130EA0861D971DE9D41BC02D5FD501C40104C064
S1130EB0880F991FAA1FBB1F2A95D2F79C01AD0169
S1130EC0B695A79597958795BC01CD01640D751DC1
S1130ED0861D971DD1D42150310941095109832F11
S1130EE08F701295107F182B1F832E8381E018C0FA
S1130EF080E016C080E014C0D501C401880F991F9A
S1130F00AA1FBB1F880F991FAA1FBB1F880F991FF9
S1130F10AA1FBB1F481A590A6A0A7B0A19EF8ECF07
S1130F20DF91CF911F910F91FF90EF90DF90CF90C1
S1130F30BF90AF909F908F907F906F905F904F90F5
S1130F4008950F931F93CF93DF93EC018B010097C8
S1130F5009F4E6C0803C910521F460E180E07DD392
S1130F60DFC0C03881E0D80721F462E080E075D3A7
S1130F70D7C0C115E1E0DE0721F461E080E06DD364
S1130F80CFC0C038F3E0DF0721F461E081E065D32E
S1130F90C7C0C03983E0D80721F461E082E05DD3A3
S1130FA0BFC0C115E2E0DE0721F462E081E055D361
S1130FB0B7C0C034F2E0DF0721F462E082E04DD331
S1130FC0AFC0C03283E0D80721F464E082E045D3A7
S1130FD0A7C0C115E8E0DE0721F461E083E03DD35A
S1130FE09FC0C115F9E0DF0721F461E084E035D347
S1130FF097C0C1158AE0D80721F461E085E02DD3BC
S11310008FC0C115EBE0DE0721F461E086E025D353
S113101087C0C034F8E0DF0721F462E083E01DD329
S11310207FC0C03489E0D80721F462E084E015D39E
S113103077C0C034EAE0DE0721F462E085E00DD336
S11310406FC0C039F8E0DF0721F464E083E005D322
S113105067C0C03989E0D80721F464E084E0FDD298
S11310605FC0C039EAE0DE0721F464E085E0F5D230
S113107057C0C039FBE0DF0721F464E086E0EDD21D
S11310804FC0C03C88E0D80721F468E083E0E5D293
S113109047C0C03CE9E0DE0721F468E084E0DDD22B
S11310A03FC0C03AF8E0DF0721F460E183E0D5D225
S11310B037C0C03A89E0D80721F460E184E0CDD29A
S11310C02FC0C03AEAE0DE0721F460E185E0C5D232
S11310D027C0C03AFBE0DF0721F460E186E0BDD21F
S11310E01FC0C03B88E0D80721F460E283E0B5D29A
S11310F017C0C03BE9E0DE0721F460E284E0ADD232
S11311000FC0C038F4E0DF0721F460E483E0A5D227
S113111007C0C03A84E0D80719F460E485E09DD2A2
S11311208D818F738D83F80194818581892B9681BC
S1131130992311F098E001C090E0892B8D83F80188
S1131140408151816281738100E814E82EE130E02E
S1131150CE01F1DD9C8198609C839C8190619C838D
S1131160DF91CF911F910F910895CF92DF92EF926B
S1131170FF920F931F93CF93DF93EC0168017901E2
S1131180F694E794D794C7944C155D056E057F05D6
S113119070F46A017B01CC0CDD1CEE1CFF1CC90140
S11311A0B801A701960168D32150310902C020E09B
S11311B030E0832F8F708F832E83DF91CF911F9127
S11311C00F91FF90EF90DF90CF900895FF920F93CF
S11311D01F93CF93DF93EC018B01009709F49BC11C
S11311E0803C910521F460E180E037D294C18038DD
S11311F021E0920721F462E080E02FD28CC1C11576
S113120081E0D80721F461E080E027D284C1C038AE
S1131210E3E0DE0721F461E081E01FD27CC1C03944
S1131220F3E0DF0721F461E082E017D274C1C11555
S113123022E0D20721F462E081E00FD26CC1C03415
S113124082E0D80721F462E082E007D264C1C032B0
S1131250E3E0DE0721F464E082E0FFD15CC1C11564
S1131260F8E0DF0721F461E083E0F7D154C1C11550
S113127029E0D20721F461E084E0EFD14CC1C1152B
S11312808AE0D80721F461E085E0E7D144C1C115C3
S1131290EBE0DE0721F461E086E0DFD13CC1C0343D
S11312A0F8E0DF0721F462E083E0D7D134C1C03431
S11312B029E0D20721F462E084E0CFD12CC1C0340C
S11312C08AE0D80721F462E085E0C7D124C1C0399F
S11312D0E8E0DE0721F464E083E0BFD11CC1C0393B
S11312E0F9E0DF0721F464E084E0B7D114C1C03928
S11312F02AE0D20721F464E085E0AFD10CC1C03903
S11313008BE0D80721F464E086E0A7D104C1C03C97
S1131310E8E0DE0721F468E083E09FD1FCC0C03C34
S1131320F9E0DF0721F468E084E097D1F4C0C03A23
S113133028E0D20771F460E183E08FD1E0EAF8E0BD
S113134084818F7E8483F8013481325080EA98E06E
S113135043C0C03AF9E0DF0721F460E184E07DD1C5
S1131360DAC0C03A2AE0D20721F460E185E075D101
S1131370D2C0C03A8BE0D80721F460E186E06DD199
S1131380CAC0C03BE8E0DE0721F460E283E065D137
S1131390C2C0C03BF9E0DF0721F460E284E05DD124
S11313A0BAC0C03824E0D20721F460E483E055D108
S11313B0B2C0C03A84E0D80721F460E485E04DD19E
S11313C0AAC08C818F7E8C83FB0134813250CE0184
S11313D0C03AF8E0DF0751F4E0E4F6E0268524FDA6
S11313E0A2C00F2EF1E1FF2EF02D04C0803B28E0B7
S11313F0920799F0803AE9E09E0751F4E0E6F6E0BE
S1131400268524FD95C00F2EF9E1FF2EF02D17C07F
S1131410803BF9E09F0701F104C00F2EF5E1FF2E98
S1131420F02D803A2AE0920751F4E0E8F6E0868550
S113143084FD83C00F2EF1E2FF2EF02D16C0803AFA
S11314409B4099F4E0EAF6E0868584FF0AC00F2EFB
S1131450FDE2FF2EF02D09C00F2EFDE1FF2EF02D31
S113146004C00F2EF9E2FF2EF02DAF2DA695A69500
S1131470A695F0E2AF9FD0011124BA5F2F2D2770FB
S113148081E090E0022E02C0880F991F0A94E2F7CF
S113149011968C931197323010F430E401C030E08F
S11314A0FD017096E20FF11D9FB7F894208127701B
S11314B020832081232B20839FBF15968C938D81BD
S11314C0806C8D83F80184818D7F813021F48D813E
S11314D082608D8303C08D818D7F8D83F80185812A
S11314E0882321F08D8184608D8303C08D818B7F5F
S11314F08D83F801408151816281738100E814E891
S11315002EE130E0CE0131DE8C8188608C838C81C9
S113151080618C8317C08C818F7E8C83F801348129
S11315203250CE0163CF0F2EF5E1FF2EF02D62CFA6
S11315300F2EFDE1FF2EF02D82CF0F2EF5E2FF2EB0
S1131540F02D93CFDF91CF911F910F91FF900895CC
S1131550803A28E0920721F460E183E07EC0089598
S1131560803B28E0920721F460E283E076C008958E
S1131570803A29E0920721F460E184E06EC0089586
S1131580803B29E0920721F460E284E066C008957C
S1131590803A2AE0920721F460E185E05EC0089574
S11315A0803A9B4019F460E186E057C008950F9398
S11315B01F93CF93DF9300D000D0CDB7DEB709835C
S11315C01A832B833C834D831E82BE016F5F7F4F42
S11315D0FDDD2696CDBFDEBFDF91CF911F910F9128
S11315E00895FB018081E82FE695E695E69540E2B3
S11315F0E49FF0011124FA5F877021E030E0A90133
S113160002C0440F551F8A95E2F746830895FB01F3
S11316108081E82FE695E695E69540E2E49FF001A7
S11316201124FA5F877021E030E0A90102C0440F61
S1131630551F8A95E2F7458308958FEF80937000D4
S11316408093710080937200809373008093740080
S1131650809375008093760008959FB7F894E82FDF
S1131660F0E0E059FF4F60958081682360839FBF5D
S11316700895CF93DF93FC01709620E030E0C62FED
S1131680D0E0DE01022E02C0B595A7950A94E2F7D8
S1131690A0FD50832F5F3F4F31962830310589F7E5
S11316A040FF0AC041FF03C0FC01658302C0FC0186
S11316B06683FC01618302C0FC016283DF91CF91E8
S11316C0089543E050E061E080EE97E0D2DF43E02C
S11316D050E062E080EE97E0CCDF43E050E060E170
S11316E080E696E0C6DF41E050E460E280E696E002
S11316F0C0DF40E05BE160E280E896E0BADF40E012
S11317005BE162E080EA96E0B4DF40E05BE164E044
S113171080EA96E0AEDF43E050E062E080E696E0E7
S1131720A8DF43E050E068E080E696E0A2DF43E013
S113173050E068E080EA96E09CDF43E050E061E03E
S113174080E696E096DF43E050E068E080E096E0D3
S113175090DF41E050E060E180E896E08ADF43E01A
S113176050E062E080E696E084DF43E050E068E029
S113177080E696E07EDF40E050E064E080E696E0BC
S113178078DF43E050E060E180EA96E072DF40E019
S113179050E061E080E096E06CDF40E050E064E01F
S11317A080E096E066DF40E050E062E080E296E0B0
S11317B060DF43E050E068E080E496E05ADF40E018
S11317C050E064E080E496E054DF43E050E068E0F9
S11317D080E696E04EDF40E050E064E080E696E08C
S11317E048DF43E050E068E080E896E042DF40E014
S11317F050E064E080E896E03CCF0895CF93DF9317
S1131800CDB7DEB76997CDBFDEBF5BDF16DFD7D8B4
S113181067E070E280EA98E094DB80E1E0E8F6E0DB
S113182085830F2EF5E1BF2EF02D6E0185E0C80EE5
S1131830D11C7E01E9E1EE0EF11C19821A821B8291
S11318401C82F6018B2D11928A95E9F78E010F5FA8
S11318501F4F80EA98E069DAF80181938F018D3097
S113186019F0EE15FF05A9F720E030E24AE06AE03E
S1131870CE01019631DAE1CFA1E21A2EAA1BBB1BDD
S1131880FD010DC0AA1FBB1FEE1FFF1FA217B30748
S1131890E407F50720F0A21BB30BE40BF50B661F5E
S11318A0771F881F991F1A9469F760957095809522
S11318B090959B01AC01BD01CF010895F894FFCF31
S11118C000FC010607207D80250000030000C7
S9030000FC
